:100000000C945C000C9448060C9421060C94790026
:100010000C9479000C9479000C9479000C9479007C
:100020000C9479000C9479000C9479000C946F0670
:100030000C9479000C9479000C9479000C9479005C
:100040000C94D7050C9479000C9479000C947900E9
:100050000C9479000C9479000C9479000C9479003C
:100060000C9479000C947900000000002400270013
:100070002A0000000000250028002B0004040404CE
:100080000404040402020202020203030303030342
:10009000010204081020408001020408102001021F
:1000A00004081020000000080002010000030407FB
:1000B000000000000000000011241FBECFEFD8E0B8
:1000C000DEBFCDBF11E0A0E0B1E0ECE2F4E102C0A0
:1000D00005900D92A830B107D9F722E0A8E0B1E071
:1000E00001C01D92AF3EB207E1F70E94E8060C94F2
:1000F000140A0C940000CF92DF92EF92FF92FC0161
:10010000808191819F01205B3F4F4191519161918D
:1001100071916C01092E000CEE08FF08C416D5067B
:10012000E606F70608F4CA01E217F30771F7FF9035
:10013000EF90DF90CF90089590E0FC01EC55FF4FD9
:100140003491FC01E057FF4F2491FC01E458FF4F2C
:10015000E491EE2309F43BC0332339F1333091F0BD
:1001600038F43130A9F0323001F584B58F7D12C0FA
:10017000373091F03830A1F03430B9F480918000FC
:100180008F7D03C0809180008F77809380000DC0A9
:1001900084B58F7784BD09C08091B0008F7703C08C
:1001A0008091B0008F7D8093B000F0E0EE0FFF1FD4
:1001B000EE58FF4FA591B4918FB7F894EC9161116F
:1001C00003C020952E2301C02E2B2C938FBF0895A2
:1001D000CF93DF9390E0FC01E057FF4F2491FC01A7
:1001E000E458FF4F8491882361F190E0880F991FB4
:1001F000FC01E859FF4FC591D491FC01EE58FF4F27
:10020000A591B491611109C09FB7F8948881209598
:1002100082238883EC912E230BC0623061F49FB758
:10022000F8943881822F809583238883EC912E2B3C
:100230002C939FBF06C08FB7F894E8812E2B28839C
:100240008FBFDF91CF9108953FB7F89480919702C7
:1002500090919802A0919902B0919A0226B5A89B1C
:1002600005C02F3F19F00196A11DB11D3FBFBA2F48
:10027000A92F982F8827820F911DA11DB11DBC01A8
:10028000CD0142E0660F771F881F991F4A95D1F76D
:100290000895CF92DF92EF92FF920E942401C090C6
:1002A0008B02D0908C02E0908D02F0908E029B0128
:1002B000AC012C193D094E095F0969017A012093AF
:1002C0008702309388024093890250938A020E94E9
:1002D000240160938B0270938C0280938D02909323
:1002E0008E023EEFC31631E0D306E104F10428F498
:1002F000D0928602C09285021DC047E7C41647E02F
:10030000D406E104F10418F01092840213C0809125
:100310008402E82FF0E0EE0FFF1FE153FD4F6091E4
:10032000850270918602C60ED71ED182C0828F5F71
:1003300080938402FF90EF90DF90CF90089508950E
:100340000F931F938091820290918302892B89F4ED
:100350000E94240160937E0270937F02809380024A
:100360009093810281E090E09093830280938202D7
:1003700068C00E94240100917E0210917F022091AA
:10038000800230918102AB01BC01401B510B620B1A
:10039000730B40937A0250937B0260937C027093BC
:1003A0007D02DB01CA01815E9140A109B10987325A
:1003B0009743A105B105A8F5809178029091790243
:1003C000FC01EE0FFF1FEE0FFF1FE85DFD4F4083A6
:1003D00051836283738301969093790280937802AC
:1003E000439759F588E292E00E947B00BC01990F87
:1003F000880B990B0E9488092DEC3CEC48E652E4EE
:100400000E94E5080E9457096093C3027093C402DA
:100410008093C5029093C6021092790210927802DE
:100420000CC08AEF90E0A0E0B0E08093C30290930C
:10043000C402A093C502B093C60210928302109228
:1004400082021F910F9108950F931F9380912602AE
:1004500090912702892B89F40E9424016093220243
:1004600070932302809324029093250281E090E010
:10047000909327028093260268C00E942401009175
:100480002202109123022091240230912502AB0117
:10049000BC01401B510B620B730B40931E02509327
:1004A0001F026093200270932102DB01CA01815E6A
:1004B0009140A109B10987329743A105B105A8F57B
:1004C00080911C0290911D02FC01EE0FFF1FEE0FA8
:1004D000FF1FE453FE4F4083518362837383019671
:1004E00090931D0280931C02439759F58CEC91E088
:1004F0000E947B00BC01990F880B990B0E94880910
:100500002DEC3CEC48E652E40E94E5080E945709B5
:100510006093C7027093C8028093C9029093CA0285
:1005200010921D0210921C020CC08AEF90E0A0E015
:10053000B0E08093C7029093C802A093C902B09321
:10054000CA0210922702109226021F910F9108955D
:100550000F931F938091CA019091CB01892B89F44D
:100560000E9424016093C6017093C7018093C80163
:100570009093C90181E090E09093CB018093CA01F0
:1005800068C00E9424010091C6011091C70120910A
:10059000C8013091C901AB01BC01401B510B620B7A
:1005A000730B4093C2015093C3016093C4017093D5
:1005B000C501DB01CA01815E9140A109B109873201
:1005C0009743A105B105A8F58091C0019091C101A3
:1005D000FC01EE0FFF1FEE0FFF1FE059FE4F40839F
:1005E00051836283738301969093C1018093C0010C
:1005F000439759F580E791E00E947B00BC01990F79
:10060000880B990B0E9488092DEC3CEC48E652E4DB
:100610000E94E5080E9457096093CB027093CC02B8
:100620008093CD029093CE021092C1011092C0012E
:100630000CC08AEF90E0A0E0B0E08093CB029093F2
:10064000CC02A093CD02B093CE021092CB011092B7
:10065000CA011F910F9108950F931F931092BE022C
:100660001092BD0280916E0190916F01892B89F4E7
:100670000E94240160936A0170936B0180936C0166
:1006800090936D0181E090E090936F0180936E01F3
:1006900068C00E94240100916A0110916B012091B1
:1006A0006C0130916D01AB01BC01401B510B620B21
:1006B000730B4093660150936701609368017093D8
:1006C0006901DB01CA01815E9140A109B10987324C
:1006D0009743A105B105A8F580916401909165014A
:1006E000FC01EE0FFF1FEE0FFF1FEC5EFE4F40837D
:1006F00051836283738301969093650180936401B3
:10070000439759F584E191E00E947B00BC01990F69
:10071000880B990B0E9488092DEC3CEC48E652E4CA
:100720000E94E5080E94570960931001709311011F
:10073000809312019093130110926501109264014D
:100740000CC08AEF90E0A0E0B0E08093100190939D
:100750001101A0931201B093130110926F01109236
:100760006E011F910F910895EBE9F2E08091100165
:100770009091110188539A4F918B808B8091CB027D
:100780009091CC0288539A4F938B828B8091C702B1
:100790009091C80288539A4F958B848B8091C302A5
:1007A0009091C40288539A4F978B868B0895EBE9FA
:1007B000F2E0AFECB2E018968D919C911997918779
:1007C00080871A968D919C911B97938782871C96A0
:1007D0008D919C911D97958784871E968D919C91F4
:1007E0001F97978786870C94B4038091D9029091C4
:1007F000DA028C34944074F0EFECF2E0ABE9B2E052
:10080000819191918D939D9382E0EF3DF807C1F71F
:100810000C94B40384E893E090939C0280939B0231
:1008200090939E0280939D029093A00280939F02DA
:100830009093A2028093A1020C94D703EF92FF92AF
:100840000F931F93CF938091100190911101A0916C
:100850001201B09113014091C3025091C402609102
:10086000C5027091C602893C9105A105B10568F1E8
:100870000091CB021091CC022091CD023091CE029A
:10088000093C11052105310500F10091C7021091C5
:10089000C8022091C9023091CA02093C1105210504
:1008A000310598F0493C51056105710570F00E94D1
:1008B000F50381E090E09093010180930001CF91D6
:1008C0001F910F91FF90EF900895E091D702F09162
:1008D000D802E555F6402091D3023091D402E3349A
:1008E000F24008F0E4C0883C9105A105B10530F064
:1008F000483C51056105710508F04AC07C018D0135
:10090000E41AF50A060B170BE0920C01F0920D01A8
:1009100000930E0110930F01883C9105A105B105CC
:1009200080F510920101109200018091CB0290910C
:10093000CC02A091CD02B091CE024091C70250915D
:10094000C8026091C9027091CA02883C9105A10554
:10095000B10528F0483C51056105710528F4841B58
:10096000950BA60BB70B04C08AE69FEFAFEFBFEF66
:100970008093080190930901A0930A01B0930B01A1
:100980001BC081E090E0909301018093000114C0AE
:100990004091D1025091D20288EC95E0841B950BD6
:1009A000092E000CAA0BBB0B80930C0190930D0138
:1009B000A0930E01B0930F0180910001909101016D
:1009C000019789F58091CB029091CC02A091CD0244
:1009D000B091CE024091C7025091C8026091C90205
:1009E0007091CA02883C9105A105B10528F0483CE8
:1009F00051056105710528F4841B950BA60BB70BF7
:100A00000AC08091CF029091D002885C9540092E57
:100A1000000CAA0BBB0B8093080190930901A093D3
:100A20000A01B0930B01809108019091090188534C
:100A30009A4F90939C0280939B0288EC95E04091A2
:100A40000C0150910D018C01041B150B10939E029B
:100A500000939D023093A00220939F029093A202E4
:100A60008093A1028CED95E09093A4028093A30261
:100A70008091D9029091DA029093A6028093A50208
:100A80008091DB029091DC029093A8028093A702F0
:100A90008091DD029091DE029093AA028093A902D8
:100AA000CF911F910F91FF90EF900C94B403E1E070
:100AB000F0E0F0930101E0930001883C9105A1056D
:100AC000B10528F0483C51056105710528F4841BE7
:100AD000950BA60BB70B0CC04091D1025091D202DE
:100AE00088EC95E0841B950B092E000CAA0BBB0B20
:100AF00080930C0190930D01A0930E01B0930F0110
:100B00008091CB029091CC02A091CD02B091CE0207
:100B10004091C7025091C8026091C9027091CA0207
:100B2000883C9105A105B10528F0483C51056105B7
:100B3000710528F4841B950BA60BB70B0AC0809196
:100B4000CF029091D002885C9540092E000CAA0B30
:100B5000BB0B8093080190930901A0930A01B09305
:100B60000B01809108019091090188539A4F90934D
:100B70009C0280939B0288EC95E040910C0150917F
:100B80000D01BC01641B750B70939E0260939D0266
:100B90003093A00220939F029093A2028093A1021F
:100BA000CF911F910F91FF90EF900C94D7031F925C
:100BB0000F920FB60F9211242F933F938F939F9311
:100BC000AF93BF938091930290919402A09195026C
:100BD000B09196023091920223E0230F2D3720F43A
:100BE0000196A11DB11D05C026E8230F0296A11D87
:100BF000B11D209392028093930290939402A0934C
:100C00009502B09396028091970290919802A091DC
:100C10009902B0919A020196A11DB11D809397028D
:100C200090939802A0939902B0939A02BF91AF91CA
:100C30009F918F913F912F910F900FBE0F901F901A
:100C400018951F920F920FB60F9211242F933F9376
:100C50004F935F936F937F938F939F93AF93BF93C4
:100C6000EF93FF93E0910501F09106010995FF9143
:100C7000EF91BF91AF919F918F917F916F915F9114
:100C80004F913F912F910F900FBE0F901F9018958D
:100C90001F920F920FB60F9211242F933F934F93F1
:100CA0005F936F937F938F939F93AF93BF93EF93D4
:100CB000FF93E0910301F09104010995FF91EF91F9
:100CC000BF91AF919F918F917F916F915F914F9164
:100CD0003F912F910F900FBE0F901F9018951F926C
:100CE0000F920FB60F9211242F933F934F935F9360
:100CF0006F937F938F939F93AF93BF93EF93FF93E4
:100D0000109285001092840080910201882369F07E
:100D100061E08AE00E949C0080E991E09093890064
:100D2000809388001092020142C060E08AE00E9435
:100D30009C0081E080930201809191028C30C0F090
:100D40001092910280918F029091900288539F4F50
:100D5000919581959109880F991F885192409093A0
:100D60008900809388001092900210928F021FC019
:100D7000E82FF0E0EE0FFF1FE556FD4F2081318197
:100D8000285C3109220F331F30938900209388009B
:100D900040918F025091900220813181240F351FA4
:100DA0003093900220938F028F5F80939102FF9186
:100DB000EF91BF91AF919F918F917F916F915F91D3
:100DC0004F913F912F910F900FBE0F901F9018954C
:100DD000789484B5826084BD84B5816084BD85B516
:100DE000826085BD85B5816085BD80916E00816022
:100DF00080936E00109281008091810082608093C8
:100E000081008091810081608093810080918000C9
:100E10008160809380008091B10084608093B100F4
:100E20008091B00081608093B00080917A008460EE
:100E300080937A0080917A00826080937A0080911A
:100E40007A00816080937A0080917A008068809334
:100E50007A001092C10061E08EE10E94E80060E03B
:100E600082E10E94E80061E080E20E94E80060E028
:100E700083E10E94E80061E082E20E94E80060E015
:100E800084E10E94E80061E084E20E94E80060E002
:100E900085E10E94E80060E083E00E94E80089E4C8
:100EA00091E0909306018093050180916900837F12
:100EB000846080936900E99AEBE9F2E08CED95E0BB
:100EC0008193919322E0E33BF207D1F761E08AE05E
:100ED0000E94E80060E08AE00E949C00F894109272
:100EE00080001092810084E690E0909389008093C6
:100EF00088008091810088608093810080918100CA
:100F000082608093810080916F00826080936F0087
:100F10007894C3E2D0E080E0A82E80E0B82E01E013
:100F200010E09AEF492E512C612C712C8091C30254
:100F30009091C402A091C502B091C6028093B30201
:100F40009093B402A093B502B093B602885C910965
:100F5000A109B1098D329140A105B10510F061E000
:100F600001C060E08EE00E949C008091DD029091C3
:100F7000DE029C012C5434402935324018F40E9482
:100F80001E040CC0853A96403CF08091D9029091A5
:100F9000DA028D3494409CF70E94F5038091D902C7
:100FA0009091DA02813496400CF04CC04092CB0212
:100FB0005092CC026092CD027092CE024092C70253
:100FC0005092C8026092C9027092CA024092C30253
:100FD0005092C4026092C5027092C6020E9424011F
:100FE000C090BF02D090C002E090C102F090C20257
:100FF000DC01CB018C199D09AE09BF09813C9241EE
:10100000A105B10508F44CC060E080E20E949C009C
:1010100061E08EE10E949C00CE010197F1F760E053
:101020008EE10E949C000E9424016093BF02709395
:10103000C0028093C1029093C2021092BE0210922D
:10104000BD022EC00E942401C090BF02D090C002F9
:10105000E090C102F090C202DC01CB018C199D0925
:10106000AE09BF09813B9440A105B10500F1809113
:10107000BD029091BE02892BD1F460E080E20E9413
:101080009C0061E08EE10E949C00CE010197F1F787
:1010900060E08EE10E949C001093BE020093BD02AE
:1010A000A114B10409F442CF0E9400003FCF0E9476
:1010B0002401DC01CB018C199D09AE09BF098136E1
:1010C0009940A105B105D0F08091BB029091BC027E
:1010D000892BA1F460E080E20E949C0061E080E244
:1010E0000E949C00CE010197F1F760E080E20E942F
:1010F0009C001093BC020093BB02D2CF0E9424013B
:10110000DC01CB018C199D09AE09BF0981319E40DC
:10111000A105B10538F08091B9029091BA02892BEE
:1011200009F43FC00E942401DC01CB018C199D0908
:10113000AE09BF09813C9241A105B10508F4B0CFC9
:101140008091B7029091B802892B09F0A9CF60E095
:1011500080E20E949C0061E084E20E949C00CE013B
:101160000197F1F760E084E20E949C000E94240154
:101170006093BF027093C0028093C1029093C20239
:101180001092BE021092BD021092BC021092BB02DD
:101190001092BA021092B9021092B8021092B702DD
:1011A0007FCF60E080E20E949C0061E082E20E94CA
:1011B0009C00CE010197F1F760E082E20E949C0062
:1011C0001093BA020093B9026BCF0E94F9080C94F5
:1011D000DA090E94D30958F00E94CC0940F029F4A2
:1011E0005F3F29F00C94C30951110C940E0A0C9422
:1011F000C9090E94EB0968F39923B1F3552391F3D0
:10120000951B550BBB27AA2762177307840738F075
:101210009F5F5F4F220F331F441FAA1FA9F335D0D2
:101220000E2E3AF0E0E832D091505040E695001C86
:10123000CAF72BD0FE2F29D0660F771F881FBB1F40
:10124000261737074807AB07B0E809F0BB0B802D1E
:10125000BF01FF2793585F4F3AF09E3F510578F04A
:101260000C94C3090C940E0A5F3FE4F3983ED4F348
:10127000869577956795B795F7959F5FC9F7880F1E
:10128000911D9695879597F90895E1E0660F771F70
:10129000881FBB1F621773078407BA0720F0621B01
:1012A000730B840BBA0BEE1F88F7E09508950E942C
:1012B000F30988F09F5798F0B92F9927B751B0F0EC
:1012C000E1F0660F771F881F991F1AF0BA95C9F7CA
:1012D00014C0B13091F00E940D0AB1E008950C9451
:1012E0000D0A672F782F8827B85F39F0B93FCCF304
:1012F000869577956795B395D9F73EF49095809547
:10130000709561957F4F8F4F9F4F0895E89409C066
:1013100097FB3EF490958095709561957F4F8F4F28
:101320009F4F9923A9F0F92F96E9BB279395F6953E
:10133000879577956795B795F111F8CFFAF4BB0FBC
:1013400011F460FF1BC06F5F7F4F8F4F9F4F16C020
:10135000882311F096E911C0772321F09EE8872FAA
:10136000762F05C0662371F096E8862F70E060E066
:101370002AF09A95660F771F881FDAF7880F9695DF
:10138000879597F9089597F99F6780E870E060E086
:1013900008959FEF80EC089500240A94161617060E
:1013A00018060906089500240A9412161306140656
:1013B00005060895092E0394000C11F4882352F0B9
:1013C000BB0F40F4BF2B11F460FF04C06F5F7F4F71
:1013D0008F4F9F4F089557FD9058440F551F59F058
:1013E0005F3F71F04795880F97FB991F61F09F3F12
:1013F00079F087950895121613061406551FF2CF3B
:101400004695F1DF08C0161617061806991FF1CF8A
:1014100086957105610508940895E894BB276627B1
:0C1420007727CB0197F90895F894FFCFCF
:08142C000100019F019F010076
:107E0000112484B714BE81FFF0D085E080938100F7
:107E100082E08093C00088E18093C10086E0809377
:107E2000C20080E18093C4008EE0C9D0259A86E02C
:107E300020E33CEF91E0309385002093840096BBD3
:107E4000B09BFECF1D9AA8958150A9F7CC24DD24C4
:107E500088248394B5E0AB2EA1E19A2EF3E0BF2EE7
:107E6000A2D0813461F49FD0082FAFD0023811F036
:107E7000013811F484E001C083E08DD089C08234E0
:107E800011F484E103C0853419F485E0A6D080C0E4
:107E9000853579F488D0E82EFF2485D0082F10E0AE
:107EA000102F00270E291F29000F111F8ED06801E7
:107EB0006FC0863521F484E090D080E0DECF843638
:107EC00009F040C070D06FD0082F6DD080E0C81688
:107ED00080E7D80618F4F601B7BEE895C0E0D1E017
:107EE00062D089930C17E1F7F0E0CF16F0E7DF06D8
:107EF00018F0F601B7BEE89568D007B600FCFDCFD4
:107F0000A601A0E0B1E02C9130E011968C91119780
:107F100090E0982F8827822B932B1296FA010C0160
:107F200087BEE89511244E5F5F4FF1E0A038BF0790
:107F300051F7F601A7BEE89507B600FCFDCF97BE46
:107F4000E89526C08437B1F42ED02DD0F82E2BD052
:107F50003CD0F601EF2C8F010F5F1F4F84911BD097
:107F6000EA94F801C1F70894C11CD11CFA94CF0C13
:107F7000D11C0EC0853739F428D08EE10CD085E9AC
:107F80000AD08FE07ACF813511F488E018D01DD067
:107F900080E101D065CF982F8091C00085FFFCCF94
:107FA0009093C60008958091C00087FFFCCF809118
:107FB000C00084FD01C0A8958091C6000895E0E648
:107FC000F0E098E1908380830895EDDF803219F02E
:107FD00088E0F5DFFFCF84E1DECF1F93182FE3DFCA
:107FE0001150E9F7F2DF1F91089580E0E8DFEE27F6
:047FF000FF270994CA
:027FFE00040479
:0400000300007E007B
:00000001FF
